:100000000C9434000C9451000C9451000C94510049
:100010000C9451000C9451000C9451000C9451001C
:100020000C9451000C9451000C9451000C946D00F0
:100030000C9451000C9451000C9451000C945100FC
:100040000C9451000C9451000C9451000C945100EC
:100050000C9451000C9451000C9451000C945100DC
:100060000C9451000C94510011241FBECFEFD8E026
:10007000DEBFCDBF11E0A0E0B1E0E0E6F2E002C0FB
:1000800005900D92A031B107D9F721E0A0E1B1E0D0
:1000900001C01D92A531B207E1F70E9412010C9434
:1000A0002E010C9400008FEF8AB987B18F6087B959
:1000B00088B1807F88B9089598B1907F98B91BB8AE
:1000C000EFE3FFE13197F1F700C00000E1E1F1E07B
:1000D000808361834283238308951F920F920FB61A
:1000E0000F9211248F939F93EF93FF9388B1807F9A
:1000F00088B9E0911001F0E0EF5EFE4FE081F0E0A2
:10010000E050FF4F80818BB980911001813051F018
:1001100028F0823059F0833069F00FC088B18160D7
:1001200088B90BC088B1826088B907C088B1846083
:1001300088B903C088B1886088B98091100190E0C7
:10014000019683709078992324F401978C6F9F6FA8
:10015000019680931001FF91EF919F918F910F90E5
:100160000FBE0F901F90189514BC8AE085BD89EFD3
:1001700087BD82E080936E00089584B1886084B961
:1001800083E88093B00081E08093B10084B1846003
:1001900084B982E2809380008AE1809381008FEFAE
:1001A00093E0909387008093860084E480937C00A2
:1001B00087E880937A000E94B4000E94530008955B
:1001C000EAE7F0E080818064808380917A0086FD98
:1001D000FCCF809178009091790008950E94E00012
:1001E0009C0136952795369527953695279520932A
:1001F000B30090938B0080938A00059730F410929F
:10020000B30010928B0010928A002FEF89EF90E0DC
:10021000215080409040E1F700C0000008950E9406
:10022000EE00089578940E94BD00F8942AE04CE016
:100230006BE08AE00E945C002FEF83ED90E3215099
:1002400080409040E1F700C000002EE045E061E012
:100250008DE00E945C000E940F01FDCFF894FFCF5B
:100260007E0CB69ECCDAFA0EFEDE80EC0C70E0005E
:00000001FF
